{
  "contractName": "ToDo",
  "abi": [
    {
      "anonymous": false,
      "inputs": [
        {
          "indexed": false,
          "name": "id",
          "type": "uint256"
        },
        {
          "indexed": false,
          "name": "content",
          "type": "string"
        },
        {
          "indexed": false,
          "name": "owner",
          "type": "address"
        }
      ],
      "name": "TaskCreated",
      "type": "event"
    },
    {
      "anonymous": false,
      "inputs": [
        {
          "indexed": false,
          "name": "id",
          "type": "uint256"
        },
        {
          "indexed": false,
          "name": "isComplete",
          "type": "bool"
        }
      ],
      "name": "TaskStatusToggled",
      "type": "event"
    },
    {
      "constant": false,
      "inputs": [
        {
          "name": "_content",
          "type": "string"
        }
      ],
      "name": "createTask",
      "outputs": [
        {
          "name": "",
          "type": "bool"
        }
      ],
      "payable": false,
      "stateMutability": "nonpayable",
      "type": "function"
    },
    {
      "constant": true,
      "inputs": [],
      "name": "getNumberOfTasks",
      "outputs": [
        {
          "name": "",
          "type": "uint256"
        }
      ],
      "payable": false,
      "stateMutability": "view",
      "type": "function"
    },
    {
      "constant": true,
      "inputs": [
        {
          "name": "id",
          "type": "uint256"
        }
      ],
      "name": "getTask",
      "outputs": [
        {
          "name": "",
          "type": "uint256"
        },
        {
          "name": "",
          "type": "string"
        },
        {
          "name": "",
          "type": "address"
        },
        {
          "name": "",
          "type": "bool"
        }
      ],
      "payable": false,
      "stateMutability": "view",
      "type": "function"
    },
    {
      "constant": false,
      "inputs": [
        {
          "name": "id",
          "type": "uint256"
        }
      ],
      "name": "toggleComplete",
      "outputs": [],
      "payable": false,
      "stateMutability": "nonpayable",
      "type": "function"
    }
  ],
  "bytecode": "0x6080604052600060015534801561001557600080fd5b506109aa806100256000396000f3fe608060405234801561001057600080fd5b506004361061004c5760003560e01c80630951e5bd14610051578063111002aa1461007f5780631d65e77e14610152578063f6397fd31461023e575b600080fd5b61007d6004803603602081101561006757600080fd5b810190808035906020019092919050505061025c565b005b6101386004803603602081101561009557600080fd5b81019080803590602001906401000000008111156100b257600080fd5b8201836020820111156100c457600080fd5b803590602001918460018302840111640100000000831117156100e657600080fd5b91908080601f016020809104026020016040519081016040528093929190818152602001838380828437600081840152601f19601f8201169050808301925050505050505091929192905050506104c9565b604051808215151515815260200191505060405180910390f35b61017e6004803603602081101561016857600080fd5b81019080803590602001909291905050506106d0565b60405180858152602001806020018473ffffffffffffffffffffffffffffffffffffffff1673ffffffffffffffffffffffffffffffffffffffff16815260200183151515158152602001828103825285818151815260200191508051906020019080838360005b838110156102005780820151818401526020810190506101e5565b50505050905090810190601f16801561022d5780820380516001836020036101000a031916815260200191505b509550505050505060405180910390f35b6102466108cf565b6040518082815260200191505060405180910390f35b80600073ffffffffffffffffffffffffffffffffffffffff166002600083815260200190815260200160002060020160009054906101000a900473ffffffffffffffffffffffffffffffffffffffff1673ffffffffffffffffffffffffffffffffffffffff161415610336576040517f08c379a000000000000000000000000000000000000000000000000000000000815260040180806020018281038252600b8152602001807f4552525f4e4f5f5441534b00000000000000000000000000000000000000000081525060200191505060405180910390fd5b3373ffffffffffffffffffffffffffffffffffffffff166002600084815260200190815260200160002060020160009054906101000a900473ffffffffffffffffffffffffffffffffffffffff1673ffffffffffffffffffffffffffffffffffffffff161461040d576040517f08c379a000000000000000000000000000000000000000000000000000000000815260040180806020018281038252600d8152602001807f4552525f4e4f545f4f574e45520000000000000000000000000000000000000081525060200191505060405180910390fd5b6002600083815260200190815260200160002060020160149054906101000a900460ff16156002600084815260200190815260200160002060020160146101000a81548160ff0219169083151502179055507fc63c34089ec3ca7025b2576e9e17e226d1e6c33f64661975d35df1cea0c0a60d826002600085815260200190815260200160002060020160149054906101000a900460ff1660405180838152602001821515151581526020019250505060405180910390a15050565b6000604051806080016040528060015481526020018381526020013373ffffffffffffffffffffffffffffffffffffffff168152602001600015158152506002600060015481526020019081526020016000206000820151816000015560208201518160010190805190602001906105429291906108d9565b5060408201518160020160006101000a81548173ffffffffffffffffffffffffffffffffffffffff021916908373ffffffffffffffffffffffffffffffffffffffff16021790555060608201518160020160146101000a81548160ff021916908315150217905550905050600060015490806001815401808255809150509060018203906000526020600020016000909192909190915055506001600081548092919060010191905055507fdc691e972cb25fd6e968744b5a6416d42a052ac1305e3b7ed6777b621304b7f2600154833360405180848152602001806020018373ffffffffffffffffffffffffffffffffffffffff1673ffffffffffffffffffffffffffffffffffffffff168152602001828103825284818151815260200191508051906020019080838360005b8381101561068b578082015181840152602081019050610670565b50505050905090810190601f1680156106b85780820380516001836020036101000a031916815260200191505b5094505050505060405180910390a160019050919050565b6000606060008084600073ffffffffffffffffffffffffffffffffffffffff166002600083815260200190815260200160002060020160009054906101000a900473ffffffffffffffffffffffffffffffffffffffff1673ffffffffffffffffffffffffffffffffffffffff1614156107b1576040517f08c379a000000000000000000000000000000000000000000000000000000000815260040180806020018281038252600b8152602001807f4552525f4e4f5f5441534b00000000000000000000000000000000000000000081525060200191505060405180910390fd5b85600260008881526020019081526020016000206001016002600089815260200190815260200160002060020160009054906101000a900473ffffffffffffffffffffffffffffffffffffffff16600260008a815260200190815260200160002060020160149054906101000a900460ff16828054600181600116156101000203166002900480601f0160208091040260200160405190810160405280929190818152602001828054600181600116156101000203166002900480156108b85780601f1061088d576101008083540402835291602001916108b8565b820191906000526020600020905b81548152906001019060200180831161089b57829003601f168201915b505050505092509450945094509450509193509193565b6000600154905090565b828054600181600116156101000203166002900490600052602060002090601f016020900481019282601f1061091a57805160ff1916838001178555610948565b82800160010185558215610948579182015b8281111561094757825182559160200191906001019061092c565b5b5090506109559190610959565b5090565b61097b91905b8082111561097757600081600090555060010161095f565b5090565b9056fea165627a7a723058206bceb71e4d4b41f342c8ad9a5c0df3e10bf037d1b2d3c5dd2a13608d2de050300029",
  "source": "pragma solidity >=0.4.21 <0.7.0;\n\ncontract ToDo {\n\n  struct Task {\n    uint id;\n    string content;\n    address owner;\n    bool isComplete;\n  }\n\n  event TaskCreated(uint id, string content, address owner);\n  event TaskStatusToggled(uint id, bool isComplete);\n\n  modifier _taskExists_(uint id) {\n    require(!(tasks[id].owner == address(0)), \"ERR_NO_TASK\");\n    _;\n  }\n\n  uint[] private taskIds;\n  uint private lastTaskId = 0;\n\n  mapping(uint => Task) private tasks;\n\n  function createTask(string memory _content)\n    public\n    returns (bool)\n  {\n    tasks[lastTaskId] = Task(lastTaskId, _content, msg.sender, false);\n    taskIds.push(lastTaskId);\n    lastTaskId++;\n    emit TaskCreated(lastTaskId, _content, msg.sender);\n    return true;\n  }\n\n  function getNumberOfTasks()\n    public view\n    returns (uint)\n  {\n    return lastTaskId;\n  }\n\n  function getTask(uint id)\n    public view\n    _taskExists_(id)\n    returns(uint, string memory, address, bool)\n  {\n    return(id, tasks[id].content, tasks[id].owner, tasks[id].isComplete);\n  }\n\n  function toggleComplete(uint id)\n    public\n    _taskExists_(id)\n  {\n    require(tasks[id].owner == msg.sender, \"ERR_NOT_OWNER\");\n    tasks[id].isComplete = !tasks[id].isComplete;\n    emit TaskStatusToggled(id, tasks[id].isComplete);\n  }\n}\n",
  "sourcePath": "/Users/jg/Documents/stability/contracts/ToDo.sol",
  "compiler": {
    "name": "solc",
    "version": "0.5.8+commit.23d335f2.Emscripten.clang"
  },
  "schemaVersion": "3.0.16",
  "updatedAt": "2020-01-09T09:21:53.632Z",
  "devdoc": {
    "methods": {}
  },
  "userdoc": {
    "methods": {}
  }
}